:020000040800F2
:100000007007002091010008A90500086905000893
:10001000A5050008490400087B0D00080000000049
:100020000000000000000000000000004907000878
:100030004D04000800000000310600085D080008BB
:10004000AB010008AB010008AB010008AB010008E0
:10005000AB010008AB010008AB010008AB010008D0
:10006000AB010008AB010008AB010008AB010008C0
:10007000AB010008AB010008AB010008AB010008B0
:10008000AB010008AB010008AB010008AB010008A0
:10009000AB010008AB010008AB010008AB01000890
:1000A000AB010008AB010008AB010008AB01000880
:1000B0004109000869090008AB010008AB0100080C
:1000C000AB010008AB010008AB010008AB01000860
:1000D000AB010008590B0008AB010008AB01000898
:1000E000AB010008AB010008AB01000800F002F80A
:1000F00000F03FF80AA090E8000C82448344AAF183
:100100000107DA4501D100F034F8AFF2090EBAE880
:100110000F0013F0010F18BFFB1A43F0010318473B
:10012000AC100000CC100000103A24BF78C878C191
:10013000FAD8520724BF30C830C144BF04680C60ED
:10014000704700000023002400250026103A28BF35
:1001500078C1FBD8520728BF30C148BF0B60704739
:10016000642900F07780002070471FB51FBD10B5CF
:1001700010BD00F037F91146FFF7F7FF00F07CFEE5
:1001800000F055F903B4FFF7F2FF03BC00F0F7FDF0
:100190000948804709480047FEE7FEE7FEE7FEE71B
:1001A000FEE7FEE7FEE7FEE7FEE7FEE70448054957
:1001B000054A064B7047000061080008ED00000882
:1001C00070010020700700207003002070030020E1
:1001D000704700000FB4044910B503AA029800F05C
:1001E000D3F810BC5DF814FB400000202DE9F0416D
:1001F0000E460446002020622046E168884730B35E
:10020000252805D0D4E901219047206A401CF2E757
:10021000E168204600278847050018D0A5F1410075
:10022000192802D820354FF4006732462946204667
:100230002760FFF795FF40B1012804D0F61D26F096
:1002400007060836D8E7361DD6E72846DAE7206ADB
:10025000BDE8F0812DE9F0410646002410687529BB
:10026000314616A510D0AFF30080002802DA4042D4
:1002700013A507E031688A0701D512A502E04907F6
:1002800004D511A5012401E0AFF3008000210A226A
:1002900006F1240709E0B0FBF2FCB0FBF2F302FB2D
:1002A0001C00303078541846491C0028F3D12346EE
:1002B0002A463046BDE8F04100F00CB800000000CE
:1002C0002D0000002B000000200000007047704748
:1002D000704770472DE9F0470D469946924604460F
:1002E00000F124080168880604D5E06921F01001B6
:1002F000216000E00120A84201DD471B00E000274B
:10030000A1697A1902EB0900081AA0612078C006D9
:1003100002D42046AFF30080002608E0D4E9012192
:100320001AF806009047206A401C761C20624E4551
:10033000F4DB2078C0060AD52046AFF3008006E043
:10034000D4E9012130209047206A401C2062381EE9
:10035000A7F10107F4DC07E0D4E9012118F8050052
:100360009047206A401C2062281EA5F10105F3DC9D
:100370002046AFF300802078000602D50220BDE8B9
:10038000F0870120FBE70000074B70B50D467B446A
:1003900000F011F80446284600F020F810B14FF0A4
:1003A000FF3070BD204670BDCB0A000001694A1CB9
:1003B00002610878704700B58FB0CDE901310021A6
:1003C000059105497944CDE9031011466846FFF7C8
:1003D0000DFF0FB000BD0000E5FFFFFF007B00F048
:1003E00080007047754600F02BF8AE460500694660
:1003F000534620F00700854618B020B5FFF7D6FE1B
:10040000BDE820404FF000064FF000074FF0000815
:100410004FF0000B21F00701AC46ACE8C009ACE896
:10042000C009ACE8C009ACE8C0098D46704710B5FA
:100430000446AFF300802046BDE81040FFF7A2BE9F
:10044000004870471001002000BFFEE770472DE90B
:10045000F04102460025002600200023002400274A
:1004600091F803C00CF00F0591F803C00CF0100CCC
:10047000BCF1000F03D091F802C04CEA050591F8D9
:1004800000C0BCF1000F31D0146800202BE04FF009
:10049000010C0CFA00F3B1F800C00CEA03069E420E
:1004A00020D183004FF00F0C0CFA03F7BC4305FA80
:1004B00003FC4CEA040491F803C0BCF1280F06D1F8
:1004C0004FF0010C0CFA00FCC2F814C00AE091F8DD
:1004D00003C0BCF1480F05D14FF0010C0CFA00FC31
:1004E000C2F810C0401C0828D1D31460B1F800C075
:1004F000BCF1FF0F34DD546800202EE000F1080C41
:100500004FF0010808FA0CF3B1F800C00CEA03063A
:100510009E4221D183004FF00F0C0CFA03F7BC432D
:1005200005FA03FC4CEA040491F803C0BCF1280F5F
:1005300005D100F1080C08FA0CF8C2F8148091F803
:1005400003C0BCF1480F07D100F1080C4FF00108BF
:1005500008FA0CF8C2F81080401C0828CED354606A
:10056000BDE8F0810161704700BFFEE708B50121D9
:10057000102000F06FF84FF40050ADF8000010208C
:100580008DF8030003208DF8020069460448FFF748
:100590005EFF4FF400510248FFF7E4FF08BD000082
:1005A0000010014000BFFEE77047000070B5002159
:1005B00000230F22C47804B3154C246804F4E064CB
:1005C000C4F5E064210AC1F10403CA40447804FA86
:1005D00003F184781440214309010E4C0678A1559B
:1005E000047804F01F050124AC4005786D11AD00BE
:1005F00005F1E025C5F8004109E0047804F01F0585
:100600000124AC40044D0678761145F8264070BDB3
:100610000CED00E000E400E080E100E0024901436D
:10062000024A1160704700000000FA050CED00E07E
:100630007047000029B1064AD2690243044BDA61CF
:1006400004E0034AD2698243014BDA61704700003B
:100650000010024029B1064A92690243044B9A6194
:1006600004E0034A92698243014B9A61704700009B
:100670000010024030B500210022002400232D4D3F
:100680006D6805F00C0121B1042905D0082923D19A
:1006900005E0294D056022E0274D05601FE0254D4E
:1006A0006D6805F47012234D6D6805F480340225E1
:1006B00005EB92421CB9214D554305600BE01D4DE1
:1006C0006D6805F400351DB11C4D5543056002E011
:1006D000194D5543056002E0174D056000BF00BF8E
:1006E000144D6D6805F0F0010909154D6B5C056846
:1006F000DD4045600F4D6D6805F4E061090A104D5D
:100700006B5C4568DD4085600A4D6D6805F460519D
:10071000C90A0B4D6B5C4568DD40C560054D6D68D1
:1007200005F44041890B074D6B5CC568B5FBF3F5DB
:10073000056130BD0010024000127A0000093D0042
:100740002800002038000020704710B500F002F8A3
:1007500010BD00000CB500200190009033480068E7
:1007600040F480303149086000BF3048006800F430
:10077000003000900198401C0190009818B9019831
:10078000B0F5A06FF1D12948006800F4003010B135
:100790000120009001E0002000900098012843D142
:1007A0002348006840F010002149086008460068AE
:1007B00020F0030008600846006840F0020008606E
:1007C0001A48406819494860084640684860084629
:1007D000406840F4806048600846406820F47C101F
:1007E00048600846406840F4E810486008460068E1
:1007F00040F08070086000BF0C48006800F0007096
:100800000028F9D00948406820F0030007494860F3
:100810000846406840F00200486000BF0348406856
:1008200000F00C000828F9D10CBD000000100240B7
:1008300000200240042808D14FF0E021096941F06E
:1008400004014FF0E022116107E04FF0E021096957
:1008500021F004014FF0E022116170477047000061
:1008600010B51348006840F00100114908600846BF
:100870004068104908400E494860084600680E4923
:1008800008400B4908600846006820F48020086092
:100890000846406820F4FE0048604FF41F0088605E
:1008A000FFF753FF4FF000600449086010BD0000DF
:1008B000001002400000FFF8FFFFF6FE08ED00E028
:1008C0001FB501210846FFF7B5FE01210420FFF7FF
:1008D000C1FE0120ADF80C0028208DF80F0003A9FF
:1008E0001648FFF7B4FD01211448FFF73BFE4FF611
:1008F000FF70ADF804000020ADF80000ADF8060070
:10090000ADF8020069464FF0804000F0D3F8702146
:100910004FF0804000F0B7F800231A4619464FF018
:10092000804000F07EF800214FF0804000F0C0F8D9
:100930000121880700F069F81FBD00000008014090
:1009400010B50121880700F08DF820B10548006836
:10095000401C0449086003214FF0804000F052F829
:1009600010BD00001000002010B50121204800F04B
:1009700079F800283AD04FF0804000F070F81D4917
:10098000086000214FF0804000F03FF80021184837
:1009900000F03BF800214FF0804000F089F8164845
:1009A0000068401C1449086014480068C0EB00400F
:1009B0001049096808441249096808441049086048
:1009C00000200E4908600C480068C82808DA012198
:1009D000880700F01AF80121054800F016F801E038
:1009E00000F0D0F90321024800F00CF810BD00001F
:1009F000000400400C00002008000020100000202F
:100A000000000020CA430282704721B1028842F0F0
:100A10000102028004E002884FF6FE731A40028051
:100A20007047F0B504460D4616461F463B46324613
:100A30002946204600F005F8208940F480402081B6
:100A4000F0BD30B50C4600210189C9B24FF6FF75E3
:100A500005EA0325154325432943018130BD01469D
:100A6000888C704730B50246002000230024158A88
:100A700005EA0103958905EA010413B10CB10120CF
:100A800000E0002030BD30B504460D462946204622
:100A900000F005F8208940F00700208130BD0A46AB
:100AA000002101894FF68F7319401143018170476E
:100AB00081847047002202881D4B98420ED01D4B46
:100AC00098420BD0B0F1804F08D01B4B984205D014
:100AD0001A4B984202D01A4B984204D14FF68F73AA
:100AE0001A404B881A43174B984207D0164B98422E
:100AF00004D04FF6FF431A40CB881A4302808B88FC
:100B000083850B8803850A4B98420BD0094B98428A
:100B100008D00E4B984205D00D4B984202D00D4B99
:100B2000984201D10B7A038601238382704700002B
:100B3000002C014000340140000400400008004047
:100B4000000C004000100040001400400040014034
:100B5000004401400048014010B540F225511D48B5
:100B600000F04AF810B31B4800F002F9C4B21A486A
:100B7000008800F40040C8B91748008800F480409D
:100B800060B10A2C03D000201349088020E01248ED
:100B9000008840F400401049088019E00D2C06D16F
:100BA0000D48008840F480400B49088010E00A4856
:100BB0000088C0F30D0009490C5407480088401C08
:100BC0000549088008460088C72801DD0020088004
:100BD00010BD000000380140440000204800002003
:100BE00021B1828942F40052828104E082894DF66B
:100BF000FF731A408281704770B5024600240023BB
:100C00000025002040F66A16B14200D100BFC1F3B2
:100C1000421501F01F03012606FA03F3012D02D14C
:100C20009689334006E0022D02D1168A334001E056
:100C3000968A33400C12012606FA04F416883440D2
:100C400013B10CB1012000E0002070BDF0B50346E7
:100C5000002400260025002040F66A17B94200D182
:100C600000BF1846C1F3421401F01F06012707FA1E
:100C700006F5012C01D10C3004E0022C01D110301A
:100C800000E014301AB107682F43076002E00768DC
:100C9000AF430760F0BD00002DE9F04786B0054680
:100CA0000E460024A24600BFA1460027B08900B12D
:100CB00000BF2F462C8A4CF6FF700440F088044396
:100CC0002C82AC894EF6F3100440B0883189084379
:100CD000718908430443AC81AC8A4FF6FF4004405D
:100CE000B0890443AC8201A8FFF7C4FC1F488742C7
:100CF00002D1DDF810A001E0DDF80CA0A88900F415
:100D0000004040B10AEBCA0000EB0A10316849000C
:100D1000B0FBF1F807E00AEBCA0000EB0A103168FB
:100D20008900B0FBF1F86420B8FBF0F00401200961
:100D3000642101FB1089A88900F4004040B13220F1
:100D400000EBC900B0FBF1F000F00700044308E03D
:100D5000322000EB09106421B0FBF1F000F00F002D
:100D600004432C8106B0BDE8F08700000038014044
:100D700001468888C0F30800704700BFFEE70146BF
:100D800000BF70472DE9F0411B48006842F2107126
:100D9000884205DA1848016818A0FFF71BFA12E02C
:100DA0001548006800F0FDF80646164A164B00F09C
:100DB0000FF9044600F0C6F81449086008460168B7
:100DC0000EA0FFF707FA00214FF08040FFF770FEFA
:100DD00000210F48FFF76CFE0020074908600D490D
:100DE000086001218807FFF710FE01210848FFF77E
:100DF0000CFEBDE8F0810000000000202564200DFD
:100E00000A0000007094BC3AC700F03F04000020C4
:100E1000000400400800002010B56FF00400FFF748
:100E200009FD0A4800680A49B0FBF1F00949087059
:100E30000846007800EB4001C1EBC0104FF6FF718F
:100E400001EAC0000449088010BD00001400002021
:100E500000127A003C0000203E00002000BF054A3E
:100E6000128802F04002002AF9D0C2B2014B1B1DC9
:100E70001A8070470038014010B54FF4A060FFF7AA
:100E8000CDFB4FF4165000F00DF8FFF7C5FFFFF74C
:100E900017FDFFF755FDFFF769FBFFF773FF002014
:100EA00010BD000010B586B00446012144F20400D4
:100EB000FFF7D0FB4FF40070ADF8140003208DF85D
:100EC000160018208DF8170005A91C48FFF7BFFA77
:100ED0004FF48060ADF8140004208DF8170005A9C8
:100EE0001648FFF7B4FA25208DF8000003208DF88E
:100EF00001008DF8020001208DF803006846FFF71D
:100F000055FB01940020ADF80800ADF80A00ADF8DB
:100F10000C00ADF810000C20ADF80E0001A9084837
:100F2000FFF7BAFE012240F225510548FFF78EFE79
:100F300001210348FFF754FE06B010BD0008014030
:100F4000003801404FEA41034FEA5353A3F5806351
:100F5000D3F11E03C8BFD3F1210C0CDD4FF00042CA
:100F600042EAC12242EA505232FA03FC8CEAE17CA6
:100F7000ACEBE1707047102BC4BF0020704703F545
:100F8000787CBCF1FF3F04D06FF0004282EA210080
:100F9000704770B500F0C6F8499224800020704771
:100FA000F2E710F0004248BF4042B0FA80F310FA76
:100FB00003F10AD0C3F11D0303F580634FEA4150EA
:100FC00002EB035202EBD12170474FF00000704753
:100FD000DFF848C170B51CEA111E1EBF1CEA1315CC
:100FE0009EEA0C0F95EA0C0F00F06F8081EA030473
:100FF00023EA4C134EEAD47E21EA4C1141F48011CD
:1010000043F48013AE44A1FB024CA0FB0365AEF198
:101010007F7E361955EB0C05A1FB034C4CF1000308
:10102000A0FB021C16EB0C06654153F100030942BC
:1010300018BF46F0010613F4007F0BD14FEA0331CD
:101040004FEA0530340341EA155140EA16506FF07B
:1010500003020AE04FEAC3214FEAC520F40241EA45
:10106000555140EA56506FF0020202EB2E4201EB5E
:10107000025585EACE710AD05FEA440C18BF24F00D
:10108000004450F1000041F1000120EAD47040F228
:10109000FE7C624500D270BDA84214BF4FF0804470
:1010A0004FF04044002E08BF0024BEF1806FA8BF5F
:1010B000A1F1C041BDE8704080F282804FF0000095
:1010C00001F1C04101F0004170479EEA0C0F0CEAAB
:1010D000131518BF95EA0C0F06D04FF0000081EAF7
:1010E000030E0EF0004170BD00F01CF88900013EB7
:1010F00000F007B800F009B84FEA430C5FEA5C5C07
:1011000008D081EA030100F05BB84FEA410C5FEAC6
:101110005C5CF6D14FF00000014970470000FF070A
:101120000000F87F0EF1020E2EF0030E5EF8046B45
:10113000364205D4012A43EB030515F5001F12D8EA
:10114000012841EB010C1CF5001F0CD80ED14FEA11
:10115000D17C15F5001F0CEB4C0C0CF1020C08BFF8
:101160004CEBD37C04E04FF0080C01E04FEAD37C59
:101170000CEB4C0526FA05F606F00706B6F1040C52
:1011800006D20EEB860CBDE870404CF0010C6047B7
:10119000DFE80CF0090B02024FF000414FF00000B5
:1011A000A1F5002170BD19461046012851EB01043C
:1011B00018BFD4F5001484BF002001F0004170BDB9
:1011C0000808A0F500114FEA31017047EC11000842
:1011D0000000002048000000280100083412000828
:1011E000480000202807000044010008000000001B
:1011F00000000000000000000000000000000000EF
:1012000000A24A04000000000000000001020304E4
:10121000060708090000000001020304010203049C
:10122000060708090204060800000000000000008C
:0412300000000000BA
:04000005080000ED02
:00000001FF
